:10000000F06C0020AD6A000093260200DD6A00005B
:10001000DD6A0000DD6A0000DD6A0000000000000B
:100020000000000000000000000000004D6800001B
:10003000DD6A00000000000005680000E314020013
:100040006D6A0000F5AB01006D6A00006D6A00008A
:100050006D6A00006D6A00006D6A00006D6A000044
:100060006D6A00006D6A00006D6A00006D6A000034
:100070006D6A00006D6A00006D6A00006D6A000024
:100080006D6A00006D6A00006D6A00006D6A000014
:100090006D6A00006D6A00006D6A00006D6A000004
:1000A0006D6A00006D6A00006D6A00006D6A0000F4
:1000B0006D6A00006D6A00006D6A00006D6A0000E4
:1000C0006D6A00006D6A00006D6A00006D6A0000D4
:1000D0006D6A00006D6A00006D6A00006D6A0000C4
:1000E0006D6A00006D6A00006D6A00006D6A0000B4
:1000F0006D6A00006D6A00006D6A00006D6A0000A4
:1001000053B94AB9002908BF00281CBF4FF0FF317E
:100110004FF0FF3000F06EB9ADF1080C6DE904CE80
:1001200000F006F8DDF804E0DDE9022304B07047D2
:100130002DE9F047089D0E4604468C46002B40F002
:1001400081808A42174645D9B2FA82F24AB1C2F199
:10015000200106FA02F320FA01F1974041EA030C6C
:1001600094404FEA174E230CBCFBFEF6B9B20EFBCF
:1001700016CC43EA0C4306FB01F0984209D9FB1860
:1001800006F1FF3C80F01581984240F21281023E58
:100190003B441B1AA4B2B3FBFEF00EFB103344EA3F
:1001A000034400FB01F1A14209D93C1900F1FF33DE
:1001B00080F00181A14240F2FE8002383C44641A82
:1001C00040EA064000211DB1D4400023C5E90043A8
:1001D000BDE8F08702B9FFDEB2FA82F2002A4FD101
:1001E000CB1B4FEA174E1FFA87F80121B3FBFEFC29
:1001F000260C0EFB1C3346EA034608FB0CF3B34205
:1002000007D9BE190CF1FF3002D2B34200F2EB80E5
:100210008446F61AA3B2B6FBFEF00EFB106643EA64
:10022000064408FB00F8A04507D93C1900F1FF334C
:1002300002D2A04500F2D2801846A4EB080440EA9E
:100240000C40C0E78B4208D9002D00F0AF800021A0
:10025000C5E900060846BDE8F087B3FA83F1002936
:1002600049D1B34202D3824200F2BB80841A66EBCA
:10027000030301209C46002DAAD0C5E9004CA7E746
:10028000C2F120039740D8409140DE404FEA174E1C
:1002900008434FEA104CB6FBFEF11FFA87F80EFB3D
:1002A00011664CEA064601FB08F3B34204FA02F475
:1002B00009D9BE1901F1FF3C80F08E80B34240F2B3
:1002C0008B8002393E44F31A86B2B3FBFEF00EFB7C
:1002D000103346EA034600FB08F3B34207D9BE19C0
:1002E00000F1FF3C74D2B34272D902383E44F31A93
:1002F00040EA01417AE7C1F1200703FA01F422FA4A
:1003000007F31C4320FA07F906FA01F34FEA144CED
:10031000FE4049EA03094FEA1943B6FBFCFE1FFA07
:1003200084F80CFB1E6643EA06460EFB08FAB2454B
:1003300002FA01F200FA01F308D9A6190EF1FF3012
:1003400048D2B24546D9AEF1020E2644A6EB0A06C3
:100350001FFA89F9B6FBFCF00CFB106649EA064669
:1003600000FB08F8B04507D9A61900F1FF3C2DD2D3
:10037000B0452BD90238264440EA0E40A6EB0806C9
:10038000A0FB02894E45C446CE4618D315D075B39E
:10039000B3EB0C0266EB0E0606FA07F722FA01F33E
:1003A000CE401F43C5E90076002111E729462846C3
:1003B0000EE76646EDE6184601E74345E7D2B8EB9F
:1003C000020C69EB04040138A646E0E76046D3E777
:1003D00060468CE78646B9E7614674E702383C44DC
:1003E0002BE7084647E7ACF1020C3E4411E72946EB
:1003F000EEE600BF704700BF2DE9F04FB4488FB064
:1004000020F01EF905F022FEB24809F0D5FEB248F0
:100410000AF0A4FC002009F0DDF8014628B1AF483D
:100420000FB0BDE8F04F20F00BB9AD4820F008F94F
:10043000AC49AD4804F002FE28B1AC480FB0BDE8AD
:10044000F04F20F0FDB804F0F3FBDFF8C082A84BBA
:100450001A78002AFCD01A78002AF9D000221A70E3
:1004600098F80030A349A0480122002B00F09D809D
:1004700020F0C4F8044618B19F4820F0E1F8E6E700
:1004800020F0AFF8DFF86C92DFF85CA20546264654
:1004900020F0A7F8431B04934FF0000363EB030322
:1004A0000593DDE9040100234EF65F228B424FF0F5
:1004B0006E0B08BF82420BFB06F709D349465A462A
:1004C000504620F09BF8014690B38C4820F0B8F8D5
:1004D00025F09DFD4FF47A730A46A0FB030103FB50
:1004E0000211C20B42EA4142551B854820F0A8F890
:1004F0002A460023F800790FFFF702FECDE900013C
:10050000BC0A2B46224639467E4820F099F87648A8
:1005100004F016FE014610B17B4820F091F898F8DF
:100520000030002B00F0CD80002388F800308EE7EB
:1005300020F057F80B9BC31A02934FF0000363EBB4
:1005400003030393DDE90223002B08BF052AEFD341
:1005500001364FF47A72B6FBF2F302FB13636E348A
:10056000002B95D120F03DF80B9BA0EB030BE3177C
:10057000D900002C5A464FF000034FEAC40041EA6C
:1005800054712746B8BF04F2FF37FFF7B9FDBF1219
:10059000CDE900015B4621465A483A4620F050F822
:1005A00020F01FF800240B9072E720F027F8044693
:1005B00000287FF461AF20F014F883460C9020F0FF
:1005C00010F8DFF824A10546264620F00AF80C9B17
:1005D000C31A08934FF0000363EB03030993DDE9AB
:1005E000080139A3D3E900238B424FF06E0908BFFD
:1005F000824209FB06F70CD31FF0F3FF3D490D9033
:100600004A4650461FF0FAFF0146F8B13B4820F039
:1006100017F825F0FCFC4FF47A730A46A0FB03019F
:1006200003FB0211C40B44EA4144B4EB0B0434480D
:1006300020F006F822460023F800790FFFF760FD4E
:10064000BD0ACDE9000123462A465CE71FF0C9FF39
:100650000D9BC31A06934FF0000363EB030307934C
:10066000DDE90623002B08BF052AEFD301364FF43E
:100670007A72B6FBF2F302FB13636E34002BA4D143
:100680001FF0AFFFE317451BD900002C2A464FF09F
:1006900000034FEAC40041EA54712746B8BF04F290
:1006A000FF37FFF72DFDBF12CDE900012B46214694
:1006B00014483A461FF0C4FF1FF093FF002405467C
:1006C00083E7012331E700BFFFBBA0650100000005
:1006D000E685020038010020180100200D86020086
:1006E0002D860200C867020004170020448602001D
:1006F000EF4D0020EE4C00206F8602008B8602003A
:10070000DC860200A7860200E3860200EE4D002090
:10071000F0B5454DD5F80431996811F0010189B063
:1007200021D103AA40F6034007F05EFD04460028ED
:1007300076D1039B9B681B7893B93C4A136005F103
:100740009803184622F00DF9BFF35B8F00F0050007
:1007500053E8002F43E800010029F9D1BFF35B8F74
:1007600003981DF029FC03AA002141F2030007F0C1
:100770003BFD0446002853D1039B2D48996808226D
:10078000013121F0CDFF03981DF016FC214603AA8C
:1007900041F2010007F028FD0446002840D10398EB
:1007A00083685A7885F83820D9789A7842EA012205
:1007B0006A871A7985F83920197ADA7942EA0122AA
:1007C000AA875A799B7942EA0323EB871DF0F4FB51
:1007D000214603AA41F2020007F006FD0446F8B9DB
:1007E000039B144899684022013121F099FF95F844
:1007F0006A30039843F0060385F86A301DF0DCFB8D
:1008000095F844305B061DD40B4B0C490C48C91AB3
:10081000C908890141F0010120F0D2F96FF01204FA
:10082000204609B0F0BD00BF0000002008190020DC
:100830004000002048000020446502002C660200B1
:10084000D6960200214603AA42F2030007F0CCFC30
:1008500004460028E4D1039BA54899680822013189
:1008600021F05EFF03981DF0A7FB214603AA42F288
:10087000020007F0B9FC04460028D1D1039B9B6815
:10088000B3F80120A5F8B02091B221B1DA789948E7
:10089000114625F0D8FA03981DF08EFB95F84460B8
:1008A00016F0200600F0FF8095F864301F0711D580
:1008B00003AA002142F21C0007F096FC044600281F
:1008C000AED10398836853F8012F5B68C5E92A23EA
:1008D0001DF072FB95F8A0309E0624D502A90DF1FB
:1008E000060007F0F9FC0446002899D1042142F2E1
:1008F000240007F01DFB0646002800F0DB800421E1
:10090000083024F073FDBDF806300380BDF80830D0
:1009100043802246314642F2240007F065FC04463B
:1009200000287FF47DAF95F8A0305C0610D503AAAF
:10093000002142F22A0007F057FC044600287FF409
:100940006FAF039883685B7885F8CC301DF034FB7B
:10095000082142F2010007F0EBFA0446002800F0FB
:10096000A9800821084424F041FD95F8A01011F059
:10097000400F024640F2022308BF032388074CBF02
:1009800043F02C0043F00C0095F8A1308F0648BFCF
:1009900040F0400013F0090F95F86A3018BF40F49A
:1009A000006003F00603CE0748BF40F01000062B9E
:1009B00008BF40F4C070002122F019F8214600223F
:1009C00042F2010007F010FC044600287FF428AF33
:1009D00095F8443098061ED4B5F8B010D9B903AADA
:1009E00041F2050007F000FC044600287FF418AF30
:1009F000B5F8B03063B9039B9B685A78997842EA9E
:100A00000122A5F8B0209A883A48114625F01BFA31
:100A100003981DF0D1FA082140F6014007F088FA4A
:100A20000446002846D00821084424F0DFFC95F84D
:100A3000A030D907024652D52BA1D1E9000121F0FF
:100A4000D6FF2146002240F6014007F0CDFB0446C8
:100A500000287FF4E5AE014602AA4FF6014007F0F8
:100A6000C3FB254E254BF61AF608B60100284DD0DB
:100A7000234846F0020120F0A3F8EB79002B7FF425
:100A8000CFAE08F0D1FCEB79002B7FF4C9AE08F0B3
:100A900075FD0446002800F0A6801A4846F00101C2
:100AA00020F08EF8BCE6022140F66D4007F040FAD7
:100AB000044610B96FF03604B2E60221083024F083
:100AC00095FC0123037046702146324640F66D4086
:100AD00007F08AFB044600283FF4E6AEA0E60A4889
:100AE0004FF00051ABE700BF90880002008000206B
:100AF000A0000020B40000202C6602004465020023
:100B0000FA960200CE97020010880002029B3B4832
:100B10009F68B7F80120032A96BF3949394951F82F
:100B2000221046F0030320F06CF8B7F80110B7F874
:100B30000320022946F003032ED1032A2CD8324980
:100B400051F82210314820F05CF87A793048032AB5
:100B500096BF30492B4951F82210CDE90312BA79DA
:100B60000592B7F807200692D7F80920079246F0B9
:100B70000303052203A920F079F802981DF01CFA5E
:100B800002AA00214FF6024007F02EFB074628B1CB
:100B9000214846F002016EE71A49D3E7029B1F483D
:100BA00099680222013121F0BBFD02981DF004FA80
:100BB00095F889305B077FF560AF02AA39464FF69A
:100BC000034007F011FB18B1154846F0020152E747
:100BD000029B144899680122114421F0A1FD02985A
:100BE0001DF0EAF949E7104807F0A0FB0446002889
:100BF0003FF416AE0D4846F0010151E71E97020082
:100C00001C6B020049900200E46A02003797020060
:100C10004F9702004C6B02007C9702008900002075
:100C2000A59702008800002001000020ED97020037
:100C30002DE9F04FB14C8FB094F8D660022306F046
:100C400001060C93002800F0BF81BEBB94F87C80A5
:100C500094F8290094F82C2027272D2307FB084817
:100C600000F0030017FB0237FF2384F82A3019F045
:100C70000FF994F8D600410708F17D0804EB070945
:100C800000F12481E05D3146C0F3801011F066FB75
:100C900006220146054609F1020021F041FD2946E0
:100CA000062208F1020021F03BFDE35D5A060AD45A
:100CB00013F00E0F40F0E280636A8BB10C263046D1
:100CC0000FB0BDE8F08F062109F102000FF016FE0B
:100CD000002800F02D82E35D13F00E0FECD0CDE084
:100CE00014F0C6F88246002800F0498214F0CCF8CF
:100CF0008346002800F05C8215F04EFC0546002873
:100D000000F053824FF6FF73806FAB8505F11C0333
:100D10000B93002800F02F8205F16C0205F16801A9
:100D20000FF0F8FDB5F86420754995F83DE095F8A9
:100D3000DC0095F840C0C5F830A10A4042F4887242
:100D400095F8261142F001020EF03F0E6EF07F0E74
:100D500020F0030021F00301A5F86420002262F3D3
:100D6000000C4FF01B1385F83DE085F8DC0085F89A
:100D700026116448644985F83F204FF0060EC5E906
:100D800013226A866A636A65A5F8C820A5F8CC2094
:100D9000A5F8E82085F8EA20C5F80021A5F8042187
:100DA000A5F81821C5F82021A5F8242185F82F21C0
:100DB000AA67EB6585F840C02866A5F8C4E0C5F8C9
:100DC0001C11A5F87C2095F872E195F89AC195F868
:100DD0007E0095F85211A5F8502162F3C30C62F31E
:100DE000041E21F0070120F01F00A5F87021A5F8CE
:100DF0009821A5F8A42185F89AC185F872E185F8B3
:100E0000521185F87E0015F0B5FEA5F8D60015F054
:100E1000B7FED5F8A8313D49A5F8D8001940C5F866
:100E2000A81115F0B3FE95F8AC1160F3020185F836
:100E3000AC1115F0B1FEC4E933AB0B9B636295F8BE
:100E4000AC1195F820C0ED610301002203F070039E
:100E500021F078010B4362F3000CC5E96E22C5E96D
:100E60006C22C5E90522C5F8C02185F8AC3185F8AA
:100E700020C01AF0BDFA002840F0668194F82830AE
:100E80000121C3F342030DA88DF834300FF0BAFEF0
:100E9000002800F09280E35D03F00F03022B00F1C5
:100EA000FF3235D0012B00F0538198F8010010304B
:100EB000C100002B00F03E81062B00F07E814FF434
:100EC000DA704FF41B7100FB02102CE0C0F3C0007D
:100ED000324604F1D70119F0DFF9FF2884F82A001F
:100EE00002D0304619F0A0F84946044819F016F827
:100EF0000248414619F012F8D7E600BF282D00201D
:100F000080F8FFFF48014801FF4901000000FFF69B
:100F100099F801301033DB0000FB03F000F5AA70F4
:100F2000642303FB020094F820C0AF4AE46100256B
:100F300065F3000C3123A0FB0201236084F820C07C
:100F4000A7A3D3E90023C4E90555C4E90155FFF778
:100F5000D7F8B4F8D490E06011F0FAF98046B9F10E
:100F6000000F07D1E55D05F00F05A5F10105B5FA04
:100F700085F56D0994F82800E36865F3000010F02A
:100F8000010584F8280000F08380984D984A049366
:100F900000200CAF019305920321CDE90757CDE95D
:100FA0000200069400904346022211F0C1F839462F
:100FB00013F0F2FF002800F0A780636A002B3FF4D3
:100FC0007DAE14F0FBFA79E60D93002E3FF476AE79
:100FD000204613F0EFFF84420CD0864A86498748AA
:100FE00040F22B631FF02CFB404080F311884FF040
:100FF000030002DF94F82830D8070DAD0ED5032189
:101000007A4B00950122002011F0FEF8294613F0DA
:10101000C3FF002840F0DB8002230D930321734BB4
:1010200000950222002011F0EFF8294613F0B4FFDA
:10103000002840F0A680724813F0F8FF002840F026
:101040008C80704813F0C2FF84420CD0694A6A4910
:101050006A4840F24D631FF0F3FA404080F3118874
:101060004FF0030002DF636A0BB114F0A7FA94F8A3
:10107000D63000206FF3000384F8D63014F056FE0B
:10108000064600283DD0002630460FB0BDE8F08F60
:101090005D4A5E48049303F24713A9FB0001DFF8A1
:1010A0004CE106941360912303FB0911DFF840C162
:1010B00009920CAF4AA3D3E900234FF6FF79CDE99B
:1010C00007E70295CDF814C0CDF80C90FFF718F89B
:1010D0004346CDE9005002222846032110F0D2FFFA
:1010E000394613F059FF00287FF467AF94F8D630E3
:1010F00043F0010384F8D63014F018FE0028C2D162
:10110000012018F0A3FEDAE5414905914AF2D832F0
:10111000CDE9075700920225CDE90300CDE9010092
:1011200006944346012203210C9511F001F8D7E7FC
:101130001226C4E599F801001030C00000F54D7387
:10114000194400F59A70BEE614F038FA0326B6E5A5
:101150004FF4F2704FF47F71B5E6264A2D492748C7
:1011600040F24A631FF06CFA404080F311884FF060
:10117000030002DF65E705F17000A867CCE50726EC
:101180009DE5204813F016FF84423FF497AD40F2EE
:101190004463184A184919481FF052FA404080F336
:1011A00011884FF0030002DF88E5584613F072FE05
:1011B000504613F063FE072681E599F8013010339D
:1011C000DB0003F54D70014403F59A707BE60D4892
:1011D00013F0F0FE84423FF471AD40F23563D8E77E
:1011E0008D49FD1A0700000000CA9A3B8D4F01008F
:1011F000315301008472020074730200CC6E02004D
:10120000442D0020282D0020082E0020002AE784ED
:101210003955010088710200F8B5194E9DF8184043
:1012200096F8485015F0010721D196F832C0DFF842
:1012300054E0A6F84210E40004F018040CF0670C27
:1012400044EAC01463F34205A2FB0E0144EA0C0415
:10125000912303FB021186F8485007A3D3E900232A
:1012600086F83240FEF74CFF70643846F8BD0C2714
:101270003846F8BDAFF300808D49FD1A0700000025
:101280002C2E0020002AE784F8B59DF81840104E57
:101290000546E400807DEA8404F01804A3FB066799
:1012A00000F06700912244EAC111014302FB037779
:1012B000A97505A3D3E9002330463946FEF720FF80
:1012C000A862F8BDAFF300808D49FD1A0700000049
:1012D000002AE784000000002DE9F04F90F832303A
:1012E000044600F1350190F8480003F0F903C0F31B
:1012F00040008FB060F3861384F8323002230B93E2
:1013000011F02CF894F82030B4F842604C48E461B5
:10131000002565F30003A6FB00019122C4E90555F1
:1013200002FB061184F8203043A3D3E90023FEF723
:10133000E7FE636C656007460933A7F1310293420B
:101340004FF03101A56028BF6564216034BFE360C0
:10135000E26010F0FDFF656A8046002D4CD0394DEB
:101360000694B4F842A0384A3548DFF8E8C0651B57
:10137000AD08A2FB0535AAFB00019122E3680493A6
:1013800002FB0A11314A05924FF000090BAE2AA365
:10139000D3E90023CDF81CC00896CDF80C90FEF7D9
:1013A000AFFE104619464FF47A720023FEF7A8FEEE
:1013B0006D080435EDB22A46029043460321CDF86C
:1013C00000904846019710F0B3FE314613F0E4FD5B
:1013D000054668B994F8483043F0010384F8483072
:1013E00014F098FA0446F8B128460FB0BDE8F08F23
:1013F0000C200FB0BDE8F08FE1680C950DAB0CAA86
:1014000003200D9502F014FC0D990029A7D0104877
:1014100009A3D3E90023A1FB0001FEF771FE0C9B99
:1014200020F07F4898449AE7022018F00FFD2046EC
:101430000FB0BDE8F08F00BF8D49FD1A0700000016
:10144000002AE7842C2E0020BD86F21AAD5A010036
:1014500000CA9A3B8D4F01002DE9F04F878D4FF662
:10146000FF739F428DB004460D46164600F08980FA
:1014700094F8E92094F8E8309A420ED09B1A03F0D1
:101480000303022B1BD094F82D2194F82C319A429F
:1014900030D100200DB0BDE8F08F94F8527117F0F4
:1014A0000108F0D194F8051194F80401884200F085
:1014B000B683931E012184F8E93084F8EA1094F889
:1014C000983194F899219A4206D094F89A2102F022
:1014D0000601042900F0E98394F8EA707B1E052BCD
:1014E00000F28F83DFE813F070002603A2028D0361
:1014F0005003C80130480FF0B7F958B394F82C31B5
:1015000084F82D310379022243F003034271037101
:10151000C271D4F8B03194F82E2102722BB394F832
:101520005221910721D494F8AB21D2071DD4D4F8CD
:10153000BC21934204BF1A68C4F8BC21D4F8B4217A
:10154000B2B91A68026018600368C4E96D000BB98B
:10155000C4F8C001B4F8CC0000289AD1B4F8C63061
:10156000012B1CD9A4F8CC3093E7D4F8B421E2B114
:10157000D4F8B8311A6802601860C4F8B80103687A
:10158000E5E70E4A0E490F484FF43D731FF058F837
:10159000404080F311884FF0030002DF68E7013319
:1015A000A4F8CC300DB0BDE8F08F0360C4E96C0046
:1015B000C4F8B801CBE700BF543C0020F47302002C
:1015C0005C750200CC6E0200DFF85494D9F800304C
:1015D000002B00F08585B4F83680628E94F80631D1
:1015E0009044B04413F003031FFA88F840F0B88326
:1015F000B4F8ECB0A8EB0B0297B212043FF543AF7E
:1016000094F8701194F8712194F8040184F805019C
:101610008A4294F8E80084F8E90009D094F872212D
:1016200002F00702052A04BF84F87111A4F8CC3037
:10163000D9F800309C4204BF0023C9F80030D4F828
:101640000091B9F1000F00F01686D9F800000028CB
:1016500000F01186B4F80831E28D4168C4F8001139
:101660009342B4F80A11B4F80CC100F02587A28D9A
:10167000A9F806204FF00B0E0022A9F81E30A9F899
:101680002010A9F822C089F804E089F81C204946F6
:1016900013F006FC13F00EFC2368002B09DAD4E9E2
:1016A000011223F000438A422CBFAD186D1823604D
:1016B000ED1AE38DB4F808A113FB07F39BB2B3FB5B
:1016C000FAF11AFB01F292B293421FFA81F980F00B
:1016D000C085D31AC84840F2E24202FB03F3A3FBE1
:1016E0000001C3A3D3E90023FEF70AFD20F07F40E9
:1016F0000544638EABEB08081E4494F93D30C844A2
:101700004644002B40F2E248668608FB0AF6C0F227
:101710000587D4F81001B849B5A3D3E90023A0FB8D
:101720000101FEF7EDFC20F07F470137B046B4F829
:101730000C21B4F80A11B14BA4F82EA042F210709B
:1017400000FB0262AE48218633443044B3FBF6F31B
:10175000013AB2FBF6F2B0FBF6F6A4F8C62098B256
:101760008A1D9042A4F8D200A4F8CA6002DD401A93
:10177000063880B294F80631A4F8CE005E0744BF64
:101780000023A4F8C830022101201CF093F90022A4
:101790000221824601200FF00BF99A494FF4E472BE
:1017A00020460FF097F8461DF6B2974B009432464C
:1017B0000121002010F028FD30F002030CD0934AE4
:1017C0009349944840F65A131EF03AFF404080F384
:1017D00011884FF0030002DF874BA8FB03894046C6
:1017E00083A3D3E900234946FEF78AFC8A4A20F006
:1017F0007F4BABFB02230721B8EB020001FB0B334D
:1018000069EB03014FF47A720023FEF779FCDFF8ED
:1018100014E28249E268DFF810C2034694F93D0001
:10182000049211EA200138BF71460020029305910D
:101830002B46CDF804B00894069400973246CDF8B4
:101840001CC00390012110F073FC30F002030CD097
:101850006E4A6F496F4840F674131EF0F1FE404027
:1018600080F311884FF0030002DFBAF1000F40F05F
:101870003D866FF047000DE6E38E628E94F8EC50E3
:1018800013441E44E807B6B22B4600F1C383B4F8F4
:10189000EE20B61A36043FF5F6AD94F8DC2094F845
:1018A00064A094F865B094F8E81084F8E910D007C3
:1018B000B4F86280D4F81C11B4F8D8600AF0070AB2
:1018C0000BF0070B40F126860A0541F1418144F2F5
:1018D00090294E4528BF4E46B6F5A47F324638BF04
:1018E0004FF4A4720A9215F01C0F40F0F386B4F87E
:1018F000607015F0E00F0ED00B9394F8652094F80B
:101900005E00690961F3020284F865204A4614F01A
:1019100091FA0B9B804694F8AC2194F86410D4F8AB
:101920000051C2F3C00262F3C30184F86410002DB9
:1019300000F0C2872868002800F0BE8794F8641081
:1019400094F865204668C4F800619E07C1F3020E52
:10195000C2F3020C01F0070102F0070202D48A452B
:1019600001F05D81A38DEB800F22002385F81DE03F
:1019700085F81EC02A712B77294613F091FAD4F806
:101980000051002D00F0B5872868002800F0B187CD
:10199000B4F860304268C4F80021BB4209D30A9A07
:1019A000934206D8B4F86230434502D34B4541F226
:1019B0004A81A4F86070A4F862802B7FA28DEA802F
:1019C00043F003030221092229712B776A77B4F8C7
:1019D0005E30B4F85C202B841523AA84EB7729466B
:1019E000A5F82280EF8413F05BFA13F063FA4AE55E
:1019F0008D49FD1A0700000000CA9A3B7FC3C90148
:101A0000FF5962028C2E0020B5610100F4730200C0
:101A1000D4740200CC6E02008D49FD1A759001004D
:101A20001C320020E99101005D61010094F8EC3066
:101A300013F0030500F0878294F93D30002BBFF6C8
:101A400022AD012D7FF41FADC1480EF00DFF0546FC
:101A500000283FF418AD03790D2243F00303042757
:101A600000F1080603714271C7710C21304619F06C
:101A7000DFFA3146082204F1F60020F051FE3A4622
:101A800005F1100104F19C0020F04AFED4F8B031B9
:101A9000002B00F0A28794F85221970700F19D8750
:101AA00094F8AB21D60700F19887D4F8BC21934273
:101AB00004BF1A68C4F8BC21D4F8B421002A01F08C
:101AC0001182D4F8B8311A682A601D60C4F8B85180
:101AD0002B68002B01F0A08113F010FA05460028B6
:101AE0003FF4D1AC2B7FA28DEA8043F003030226A2
:101AF000172103222B776977EA7704F25511082220
:101B00002E7105F1200020F00BFE94F8533185F87A
:101B1000283094F8543185F829302868294613F084
:101B2000BFF913F0C7F994F8EC3066F3010384F8B9
:101B3000EC30A8E4E38E618E94F8EC200B441E4454
:101B4000D007B6B200F1B181B4F8F230F61A33041E
:101B50003FF599AC94F8E83084F8E93004F13805A1
:101B6000052204F1ED01284620F0DAFD2846052182
:101B70000FF048F894F83D30012260F3050384F833
:101B80003D3084F8C4217EE471480EF06DFE0028DB
:101B90003FF479AC94F8E83084F8E9300123027915
:101BA0004371D4F8B03142F0030212210271C171C5
:101BB000002B00F0438394F85221960700F13E83F6
:101BC00094F8AB21D50700F13983D4F8BC219342B6
:101BD00004BF1A68C4F8BC21D4F8B421002A01F06B
:101BE0004581D4F8B8311A6802601860C4F8B801A9
:101BF0000368002B00F05385B4F8CA30A4F8CC3049
:101C000041E4544A5449554840F27A331EF018FDD5
:101C1000404080F311884FF0030002DF33E494F872
:101C2000190194F818C1604556D194F8250194F82B
:101C300024C1604500F03083A0EB0C00C1077FF5A4
:101C400022AC94F82631DA0741F129809A0741F154
:101C5000218013F053F90146002872D094F8243102
:101C600084F82531037FA28DC28043F003030B77F4
:101C7000022006220C2308714A77CB77B4F828217A
:101C8000B4F82A3194F8270181F82000A1F8212026
:101C9000A1F82330086813F003F913F00BF994F856
:101CA000E83094F8E920FFF7E9BB02F007010629C4
:101CB00001F2968201A050F821F000BF6D210000D2
:101CC000D9140000D9140000D9140000E920000044
:101CD000E9200000D9140000A0EB0C00C3077FF539
:101CE000D2AB94F8DC1011F0010700F07D8413F002
:101CF00005F9074628B394F8183184F81931037FA1
:101D0000A28DC28043F003030922022041463B77A3
:101D100038717A77FA7707F12000082220F02BFD3E
:101D2000D4F8203187F82030C3F307221B0C87F842
:101D3000212087F822303946086813F0B1F813F0F3
:101D4000B9F894F8E83094F8E920FFF797BB00BFA2
:101D5000543C0020F47302003C6F0200CC6E020081
:101D6000012013F0ADF8074600283FF48CABA348E0
:101D70000EF07AFD064600283FF485AB13F0BEF85E
:101D80003B68D4F800215A6094F80631C4F8007119
:101D900003F00303012B00F0BA86022B00F01A8631
:101DA000974A9849984840F67F031EF049FC404006
:101DB00080F311884FF0030002DF0021238E94F896
:101DC000067132794344063398B26FF301070C234E
:101DD00084F80671A4F8EC0042F003027371D4F8A1
:101DE00010318A4F32710022F271A7FB032394F85D
:101DF000147122683772B4F80871A6F80B70B4F841
:101E00000A71A6F80D70C3F38F23B4F80C71A6F80D
:101E10000F70002AA6F81100A6F80930C4F8F45093
:101E20000ADAD4E9010322F0004283422CBFED1804
:101E30002D18AA1AC4F8F420754B06F109000122E6
:101E4000C4F8F000D960104602219C600EF0E4FD59
:101E5000002840F05F86D4F8B031002B00F04F83AB
:101E600094F85221900700F14A8394F8AB21D107EE
:101E700000F14583D4F8BC21934204BF1A68C4F82A
:101E8000BC21D4F8B421002A01F00680D4F8B8317E
:101E90001A6832601E60C4F8B8613368002B7FF4A2
:101EA000F2AAC4F8C061FFF7EEBA54480EF0DCFCA9
:101EB000054600283FF4E7AA238E027994F8EC1037
:101EC0001E44B31DA4F8F2306FF30001012342F069
:101ED0000302082084F8EC102A716871EB71052266
:101EE00004F1ED01281820F01BFCD4F8B031B4F84F
:101EF000F220A5F80D20002B00F0E18394F8522188
:101F0000910700F1DC8394F8AB21D20700F1D7836D
:101F1000D4F8BC21934204BF1A68C4F8BC21D4F899
:101F2000B421002A00F0CB87D4F8B8311A682A60AF
:101F30001D60C4F8B8512B68002B7FF4A4AAC4F824
:101F4000C051FFF7A0BA2D480EF08EFC06460028BF
:101F50003FF499AA94F93D30002B00F1040880F277
:101F6000D88494F87E30190700F1DE8694F8ED509D
:101F7000002D00F05685037994F8DC2043F003032C
:101F8000D207037140F1FE86D4F81C315B0740F1A3
:101F9000F986112203234572C27103727771D4F856
:101FA000B031002284F8ED20002B00F0848594F8F5
:101FB0005221900700F17F8594F8AB21D10700F101
:101FC0007A85D4F8BC21934204BF1A68C4F8BC21B6
:101FD000D4F8B421002A00F0CA87D4F8B8311A68BE
:101FE00032601E60C4F8B8613368002B00F01386BD
:101FF00094F8E83084F8E930FFF745BA543C002003
:10200000F47302003C6F0200CC6E02005917B7D186
:1020100088050020022012F053FF054600283FF4F7
:1020200032AAC7480EF020FC804600283FF42BAAB5
:1020300094F8EC306FF30003C3F38207C3F342124A
:10204000174384F8EC30DBB240F0068694F8E820C1
:10205000A4F8EE70990784F8E92000F1A7863B46C2
:102060003946052288F8052088F8087098F8042079
:1020700088F80930D4F8B031A8F80A1042F0030209
:10208000182188F8042088F80710002B00F00B8333
:1020900094F85221920700F1068394F8AB21D707F8
:1020A00000F10183D4F8BC21934204BF1A68C4F83C
:1020B000BC21D4F8B421002A00F0F686D4F8B83157
:1020C0001A68C8F80020C3F80080C4F8B881D8F8AE
:1020D0000030002B7FF4D7A9C4F8C081FFF7D3B933
:1020E000C9F80040FFF777BA02F00702B4F89CC1C4
:1020F000B4F8A011B4F89E91B4F8A281A4F85EC01F
:10210000042AA4F8621000F0368594F89A31062269
:1021100062F3020384F89A31D4F80071002F00F0C2
:10212000E2843868002800F0DE843B7F4268B4F81F
:102130002CE0C4F8002143F0030302223B774FF068
:10214000090A1523A7F806E0A7F820C079843A7198
:10215000FB773946A7F82490A7F8268087F81DA0BA
:1021600012F09EFE12F0A6FEFFF7B6B974480EF00C
:102170007BFB00283FF4B0A994F89A21B4F89E1193
:10218000B4F8A231A4F8D6100127A4F8D83067F328
:10219000020284F89A2109270279477194F8DC70C9
:1021A000D4F81CE1818142F0030202716FF0040255
:1021B0004FF0140C00210272FA0780F807C0417238
:1021C00040F185841EF4006F00F02D8644F29021CA
:1021D0008B4228BF0B46B3F5A47F38BF4FF4A473DE
:1021E000D4F8B0214181C381002A00F0778394F8AC
:1021F00052319B0700F1728394F8AB31DF0700F195
:102200006D83D4F8BC319A4204BF1368C4F8BC3162
:10221000D4F8B431002B00F08D86D4F8B8311A68A8
:1022200002601860C4F8B8010268002A00F0B085A6
:10223000B4F8CA30A4F8CC30FFF74EB9D4F8B421C2
:10224000002A7FF4CEAC0360C4E96C00C4F8B80186
:10225000CFE40AFB113340F2E2423A489BB202FB60
:1022600003F3A3FB000134A3D3E90023FDF748FFE8
:102270002D1AFFF73EBA344A344935484FF40B6300
:102280001EF0DEF9404080F311884FF0030002DFBA
:10229000D9F80000FFF7DEB994F871C194F8700125
:1022A000844500F02982DFF8AC90D9F800000028BE
:1022B00000F09C8584427FF4E6A894F8720100F057
:1022C0000700052800F279870FF2040C5CF820F073
:1022D000D923000059230000E92200007D140000EA
:1022E0007D1400007D140000BB073FF5CCA812F060
:1022F00005FE014600283FF424AD037F94F87221C7
:10230000032060F30202034384F87221A08D0B774F
:10231000022718230F714B77B4F87421B4F8763183
:10232000C880B4F878010A84B4F87A214B840F236A
:102330008884CA84CB77FFE48D49FD1A070000002A
:10234000543C002000CA9A3BF473020078750200E6
:10235000CC6E02001C32002094F87371002F40F004
:102360000D8694F93D30002BC0F22D8694F8723121
:1023700094F87C01C4F81071052262F30203012273
:1023800084F8723184F81421002800F00487B4F82E
:102390007431B3FBF0F3134413FB00F39BB294F8D6
:1023A000722194F80601A4F80831C2F3C0039B001F
:1023B00020F0070243F002031343B4F87801B4F8A5
:1023C0007A2184F80631013984F80511A4F80A014C
:1023D000A4F80C21FFF757B8D948B4F83680B4F800
:1023E00032A00EF041FA074600283FF4AAAC027969
:1023F00094F87211042060F3020142F003021820E5
:1024000084F8721108EB0A033A717871B4F8740118
:10241000B4F87611B4F8782138813344B4F87A01ED
:102420007981BA810F210022A7F811304FF0FF33D4
:10243000F881F9713A74FA743A757B75BB75FB755E
:102440003B767B76BB76FB763B777B77BB773946F3
:10245000204613F041FD2268B4F8CA30C9F80040A4
:10246000002AC4F89051A4F8CC300ADAD4E9011358
:1024700022F000428B422CBFEB186B189B1AC4F859
:102480009031B04B13370122C4F88C7110460221F1
:102490009C600EF0C1FA00283FF453ACAA4AAB4945
:1024A00040F66D33AA481EF0CBF8404080F3118807
:1024B0004FF0030002DF44E4228E8A427FF4D7A863
:1024C00040F2E24202FB03FA42F21072B4F8C6E0B4
:1024D00002FB0CA2013AB2FBFAF292B296457FF4EB
:1024E000C6A8032389F80430FFF7D1B801221046AB
:1024F00002210EF05DFA6FF04700FEF7CBBFD4F873
:10250000B421002A7FF4C2AC3360C4E96C66C4F81D
:10251000B861C3E440F64809FFF7DBB9E26C636CCD
:10252000DFF83CA203FB1727E76419F055FF0746C5
:1025300094F8DC00C0F3820019F050FF3B1806FB52
:1025400003F3844F94F81421B4F880B103F5742395
:1025500003F23F23A7FB031371089F0C08FB0BFB3F
:1025600008FB02F3A1F19602676463658BFB0A0125
:102570000A92A26470A3D3E90023FDF7C1FDE36CC6
:102580000A9AC4F8E40007FB09F94B44934228BFB8
:102590001346E364ABFB0A0167A3D3E90023FDF70D
:1025A000AFFD65A3D3E900238446A9FB0A01654476
:1025B000FDF7A6FDD4F8103184466748A0FB033030
:1025C000800A08FB00F0A0FB0A015BA3D3E900230B
:1025D000A5EB0C05FDF794FDA6EB0708B4F808A1E0
:1025E00020F07F47FFF7A3B855480EF03DF980462D
:1025F00000283FF4A6AB94F81931584AC4F81C21BE
:10260000013B092284F81931427194F93D20037984
:10261000002AACBF08220E2243F00303C271082235
:1026200003713946104420F0A6F8D4F81C3188F81C
:102630000830C3F307221B0C88F8092088F80A30F9
:10264000D4F8B031002B00F0D48194F852219707D0
:1026500000F1CF8194F8AB21D00700F1CA81D4F802
:10266000BC21934204BF1A68C4F8BC21D4F8B42139
:10267000002A00F06784D4F8B8311A68C8F800203E
:10268000C3F80080C4F8B881D8F80030002B00F0FF
:10269000C783B4F8CA30A4F8CC30FFF752BBC4F8F3
:1026A000C001FFF7A9BAD4F8B421002A7FF406AD1F
:1026B000C8F80030C4E96C88C4F8B88109E5D4F8DA
:1026C000B421002A7FF430AC2B60C4E96C55C4F807
:1026D000B85131E494F8642094F85C000B93C5F38E
:1026E000820161F3020284F864200A9A13F0A2FBCB
:1026F0000B9B0746FFF7FDB894F8987194F8991171
:10270000B94200F0438294F89A0100F007010629CB
:1027100000F275850FF2040C5CF821F0F12700003F
:102720007D1400007D1400007D140000652700006A
:10273000652700007D1400008D49FD1A0700000088
:10274000543C002098050020F4730200B071020090
:10275000CC6E020083DE1B435917B7D1FF4901003D
:1027600000CA9A3BB4F89C31A4F85E3000F007032D
:10277000B4F8A021B4F89E91B4F8A281A4F8622024
:10278000042B00F0EA830346062262F3020384F876
:102790009A31D4F80071002F00F0BD83386800280A
:1027A00000F0B9833B7F4268B4F82CC0C4F8002124
:1027B00043F003033B77022209237B773A71B4F895
:1027C0006220B4F85E10398415237A84FB77A7F869
:1027D00006C03946A7F82490A7F8268012F060FBBF
:1027E00012F068FB94F8E83094F8E920FEF746BE52
:1027F000D0480EF039F800283FF4A3AA94F89A21A3
:10280000B4F89E11B4F8A231A4F8D6100127A4F8A8
:10281000D83067F30202092784F89A2102794771B8
:1028200094F8DC70818142F0030214214FF0000C17
:102830000271FF07D4F81C21C1716FF0040180F808
:1028400009C0017240F15C83110540F11B8444F220
:102850009022934228BF1346B3F5A47F38BF4FF4AC
:10286000A473D4F8B0114281C381002900F02F83F2
:1028700094F852319B0700F12A8394F8AB31DF07BB
:1028800000F12583D4F8BC31994204BF0B68C4F829
:10289000BC31D4F8B431002B00F08184D4F8B831C5
:1028A0001A6802601860C4F8B8010368002B7FF44E
:1028B000F0AEC4F8C001ECE69F4AA049A04840F63B
:1028C0002F631DF0BDFE404080F311884FF00300E0
:1028D00002DF286894F8EC30FFF730B8D4F8B43150
:1028E000002B7FF49AAC0260C4E96C00C4F8B80114
:1028F0009BE4914A9149924840F65B631DF0A0FE2B
:10290000404080F311884FF0030002DF2868FFF792
:102910003FB804F17F073B462A4604F1EE0104F27A
:102920005D101AF01FFB3946102204F1A0001FF0C1
:10293000F7FE082204F1980104F1B9001FF0F0FE3F
:1029400094F8970094F8B82094F87E3084F88F506B
:1029500043F0080365F3000042F0010284F8970099
:1029600084F87E3084F8905084F8915084F8925026
:1029700084F8935084F8945084F8955084F89650D5
:10298000C4F8B0504146C4F8B45084F8B82020468A
:1029900013F0BEFCD4F8B031002B36D094F852219D
:1029A000950732D494F8AB21D0072ED4D4F8BC21AB
:1029B000934204BF1A68C4F8BC21D4F8B421002A99
:1029C0007FF40BAB1A6832601E603368C4E96D6631
:1029D000FFF70BBB5B49FFF7F1B9D4F8B421002A2C
:1029E0007FF46FA82B60C4E96C55C4F8B851FFF7A9
:1029F00070B8D4F8B421002A7FF43DAEC8F8003096
:102A0000C4E96C88C4F8B88140E6D4F8B421002A3F
:102A10007FF4E3AA3360C4E96C66C4F8B861FFF7D9
:102A2000E4BA04F17F073B462A4604F1EE0104F2C2
:102A30005D101AF097FA3946102204F1A0001FF039
:102A40006FFE082204F1980104F1B9001FF068FE3E
:102A500094F8972094F8B81094F87E3084F88F504A
:102A600042F0010265F3000143F00803012084F8FD
:102A7000972084F8B81084F87E3084F8905084F859
:102A8000915084F8925084F8935084F8945084F8CC
:102A9000955084F89650C4F8B050C4F8B4503279C8
:102AA0007071D4F8B03142F0030205213271F17136
:102AB000002B7FF47CAAD4F8B421002A7FF48DAADD
:102AC0003360C4E96C66C4F8B861FFF78DBA40F6AC
:102AD00048018B4228BF0B46B3F5A47F38BF4FF4A3
:102AE000A473FFF77DBB144A1449154840F6FF4311
:102AF0001DF0A6FD404080F311884FF0030002DF77
:102B00003868B4F85EC0B4F86210FFF70EBB0E4927
:102B1000FFF754B9084A0D49094840F63A031DF039
:102B20008FFD404080F311884FF0030002DFFFF774
:102B300092B900BF543C0020F47302007875020083
:102B4000CC6E0200013E000091980100B0710200BD
:102B5000CF057FF5DFACB6F5856F28BF4FF48566EE
:102B6000B6F5A47F324638BF4FF4A4720A924FF4F0
:102B70008569FEF7B8BEB4F8A421002A40F065814B
:102B800084F89931A4F8CC20FFF7C6BA94F8A8319C
:102B900094F8A91199423EF476AC94F8AA1101F088
:102BA0000300032800F07F8200287EF46CACD1483B
:102BB0000DF05AFE014600283FF4C3A894F8AA314C
:102BC00094F8AC2194F8AB71012060F30103C3F3D6
:102BD000820060F30202C3F3421060F30612C7F3EF
:102BE0004007087984F8AA3167F3C30284F8AC215E
:102BF000C3F3820C40F00300C3F3421303271622F1
:102C00000871CA7181F808C04B724F7100222046CA
:102C100013F062F93DE5C4F8C061FFF7E9B99345E7
:102C20007EF4A0AE03232B71294612F039F9D4F8B3
:102C30000051002D00F017822868002800F0138250
:102C40004368C4F8003103232B71294612F028F998
:102C500012F030F9FEF717BC238E1E44B31DA4F802
:102C6000EE3012F04BF92B68D4F800215A60C4F80A
:102C7000005112F043F90368D4F800215A6094F827
:102C8000EC30B4F8EE10C4F80001C3F382075B091E
:102C9000FFF7E7B940F61E33974A984902E4954892
:102CA0000DF0E2FD00283FF44CA894F8252194F89B
:102CB0002631013A84F82521027943F001030621E7
:102CC00084F8263142F003024171D4F8B031027128
:102CD0000B216FF00E020C270172427205214FF09A
:102CE000FF32C7718172C2720273002B00F0C6807E
:102CF00094F85221970700F1C18094F8AB21D107D5
:102D000000F1BC80D4F8BC21934204BF1A68C4F817
:102D1000BC21D4F8B421002A7FF4C0AD1A68026047
:102D20001860C4E96D00C0E54146204613F0F0FA92
:102D3000D4F8B03183B394F8522192072CD494F88C
:102D4000AB21D70728D4D4F8BC21934204BF1A681A
:102D5000C4F8BC21D4F8B421002A00F07E81D4F854
:102D6000B8311A6832601E60C4F8B8613368002B4D
:102D700000F08F8094F8523123F0030384F852312D
:102D8000FFF736B90D233572F3710227FFF706B945
:102D9000C4F8C001FFF74CBAD4F8B421002ADED140
:102DA0003360C4E96C66C4F8B861DFE712F0A6F8D6
:102DB0000F23A28D2F772B7194F864302868EA8056
:102DC000C3F302036B7794F86530C3F30203AB7768
:102DD000294612F065F812F06DF894F8EC30B4F86A
:102DE000EE10C3F382075B09FFF73BB994F8723129
:102DF00003F00703052B00F2E08101A252F823F053
:102E0000D923000059230000E922000087140000A4
:102E10008714000087140000C4F8C051FEF75CBEA0
:102E2000C4F8C08135E41EF4807F3FF450AEB3F5A2
:102E3000856F28BF4FF48563B3F5A47F38BF4FF487
:102E4000A4734FF48561FFF7CBB994F89A01B4F8F5
:102E5000A671A4F89E21002363F3020084F89A016E
:102E6000A4F8A431A4F8A271FFF756B91A68026059
:102E700018600368C4E96D00FEF7BBBED4F8B42146
:102E8000002A7FF40BAD0360C4E96C00C4F8B801FC
:102E90000BE5C4F8C0616DE71A6832601E603368E4
:102EA000C4E96D66FEF7FABF1A68C8F80020C3F8D7
:102EB0000080D8F80030C4E96D88FFF70AB91A68B5
:102EC0002A601D602B68C4E96D55FFF735B8D4F84A
:102ED000B431002B7FF4E2AC0160C4E96C00C4F8AB
:102EE000B801E2E41A682A601D602B68C4E96D55D8
:102EF000FEF7EFBD543C0020F47302003C6F02006B
:102F000040F64802934228BF1346B3F5A47F38BF6A
:102F10004FF4A473A5E4BB4ABB49BC4840F6FF4349
:102F20001DF08EFB404080F311884FF0030002DF5C
:102F3000386837E41368036010600268C4E96D0004
:102F4000FFF773B91A68C8F80020C3F80080D8F8F2
:102F50000030C4E96D88FFF799BBB4F8A421002ABA
:102F600040F0E38084F89971A4F8CC2011E41A6849
:102F700032601E60C4E96D66FFF736B8A4480DF0F4
:102F800073FC014600283EF4DCAE037943F00303F2
:102F90000B71112003220F23C8714A710B7294F830
:102FA00073314B720022204612F096FF94F8703174
:102FB00084F871310023C9F8003094F8E92094F8BE
:102FC000E830FEF75BBA92480DF04EFC014600284F
:102FD0003EF4B7AE0379182243F003030371427144
:102FE000B4F87421B4F87631B4F878010A81B4F8F1
:102FF0007A214B8110238881CA81CB7194F87C316E
:103000000B74B4F87E31B4F88001B4F88221A1F8D1
:103010001130B4F88431A1F81300B4F88601A1F896
:103020001520B4F88821A1F81730B4F88A31A1F836
:103030001D30A1F81900A1F81B2020463A4612F0D5
:103040004BFF94F8703184F8713194F8E92094F8CA
:10305000E830C9F80070FEF711BA1A6832601E60D5
:10306000C4E96D6682E6674A6749684840F63E6390
:103070001DF0E6FA404080F311884FF0030002DFB4
:103080002868DDE5D2057FF53BAFB3F5856F28BF36
:103090004FF48563B3F5A47F38BF4FF4A4734FF4A6
:1030A0008562FFF7DEBB080784F8A931C1F382030C
:1030B00053D594F8AA31022161F3840384F8AA312C
:1030C00094F8AA315F064FEA53113ED5022161F30D
:1030D000471384F8AA3194F8AA3194F864C094F89C
:1030E000657094F8AB11C3F382000CF0070C07F085
:1030F0000707C1F38001844508BF00204900B7EBF2
:10310000531F41F001014FEA531308BF002341EA66
:10311000431141EA8001931E062084F8E93084F8C7
:10312000EC1084F8EA00FEF7D7B90021034661F3FA
:103130000203A4F89E21B4F8A62184F89A31A4F8D9
:10314000A411A4F8A221FFF724BBC8070FD50121C1
:1031500061F3471384F8AA31BDE7D90710D594F875
:10316000AA31012161F3840384F8AA31A8E711F0A0
:10317000040118BF042161F3471384F8AA31AAE7B8
:1031800013F0040312D094F8AA31042161F38403EC
:1031900084F8AA3194E7B4F87631FFF700B90B68E8
:1031A00003600860C4E96D00FFF77FBB94F8AA11C3
:1031B00063F3840184F8AA1182E7124A154913487F
:1031C00040F62B431DF03CFA404080F311884FF04D
:1031D000030002DF94F8E83094F8E920FEF74EB9D6
:1031E000084A0C49094840F627531DF029FA404087
:1031F00080F311884FF0030002DFFEF76DB940F64F
:10320000275349E5F473020078750200CC6E020082
:10321000543C00203C6F02002DE9F04FD2F800C072
:103220001D4653F80C6BDCF8009095B01746002251
:103230008646CCF8082018460C4603222E3105F1AC
:10324000080ACDF828E005F11C081FF069FA04F11E
:103250002A01042250461FF063FA04F13A010522C4
:1032600040461FF05DFA404605210DF0CBFC95F875
:10327000213000F03F0060F30503012885F821307C
:103280000AD994F83F3003F01F02053AC3F3040152
:103290000B2A85F8221002D915B0BDE8F08FB4F8DA
:1032A0003480A5F8128094F8362094F8370096F808
:1032B000DC1042EA00225B0963F38401AA82638E78
:1032C00086F8DC10ADF8303019F086F8034696F831
:1032D000DC000B93C0F3820019F080F80B9BDFF841
:1032E00028C394F83110AA8A40F2E24B0BFB08F88D
:1032F000184408FB00F000F5742000F23F20ACFBFE
:1033000000C04FEA580C800C0BFB01F1ACF1960C9D
:10331000A862C5F82CC0E963218FB14BADF8361017
:1033200042F2107C0CFB0181AE48434402F1060CD2
:103330000139B3FBF8F3B1FBF8F1A6F8C61099B266
:1033400061454044A6F8D210B0FBF8F0A6F8CA00D8
:1033500002DD891A063989B2A6F8CE100422514638
:1033600006F1E0001FF0DCF9237F04F11E0A51464C
:10337000C3F38013062212A88DF840301FF0D0F955
:10338000237F4FF48072A28399F82A0097F812B035
:10339000C3F340128DF83C200B9217F06BFA0146F4
:1033A000062204F12B00002940F0ED801FF0E3F924
:1033B00004F12503BBF1FF0F0E9304F11F0300F08E
:1033C000EB801A465146584616F08EFCA27F0E98A6
:1033D0000232A27712A906221FF0A2F996F8DC3079
:1033E000698AAA8AA286C3F3820384F83830BDF8BA
:1033F0003630E3866186304613F0DAF821462882BB
:10340000E0807C680A9811F04BFD2B8AE3800E2344
:1034100023710B9B2068002B00F0BA8095F809E01F
:103420002B7A95F80BC0A97A95F8212041EA0C2156
:1034300043EA0E234B4042F0400201216B8485F8A1
:1034400021202177214611F02BFD11F033FD95F855
:103450004900012100F0070017F054FF624A4FF0C5
:10346000000A8346312300F25240A0FB0201336080
:10347000C6E901AA58A3D3E90023FCF741FEFC6882
:10348000BDF83020AD6A20F07F4040F2E24303FBFC
:10349000023302215246F060A4F5AE7401201C44B0
:1034A0000DF086FA484612F01BFA821C4F4BCDF8FD
:1034B0000090D2B2504601210EF0A6FE0128A8EBE2
:1034C0000508A4EB0B047FD099F82830DB0773D4F0
:1034D000304613F06DF8DFF810B1A8FB0B893EA35E
:1034E000D3E90023054649464046FCF709FE404A19
:1034F000069620F07F4AAAFB0223072101FB0A332C
:103500004FF49471BF6808913A4907913A4905917F
:10351000B8EB020069EB0301F368049300264FF453
:103520007A7200230396FCF7EBFD2BA3D3E900236B
:103530008446A4FB0B01CDE901ACFCF7E1FD0535A8
:1035400020F07F40EDB2313F3B4600902A463046A6
:1035500001210EF0EDFD30F002030CD0274A28497E
:10356000284840F229131DF06BF8404080F3118881
:103570004FF0030002DF0122104602210DF018FA7D
:1035800015B0BDE8F08F04F124011FF0C9F80FE772
:103590009DF83C30237755E70E98119306220021C1
:1035A0001FF0E9F89DF84030A377119B12A9184647
:1035B00006221FF0B5F811E70023012200931846F8
:1035C00011460EF021FE83E711F00CFD81453FF41A
:1035D0007BAF15F02BFD77E78D49FD1A0700000042
:1035E0007FC3C901FF59620200CA9A3B599001008A
:1035F0008D49FD1AFD8F0100759001002C760200A7
:10360000D4740200CC6E020083DE1B430000000075
:103610002DE9F041D0E90BC7D0F828800CEB070466
:103620003034A0450E46154618D81B4F18A3D3E9D1
:103630000023ACFB0701FCF763FDA4EB080420F0BA
:103640007F40306012A3D3E90023A4FB0701FCF7FD
:1036500057FD20F07F402860BDE8F0810E4C0CA3A0
:10366000D3E90023A8FB0401FCF74AFD20F07F43C7
:1036700007F130003360A0FB040105A3D3E9002368
:10368000FCF73EFD20F07F402860BDE8F08100BFE0
:103690008D49FD1A0700000000CA9A3B0000000097
:1036A0002DE9F04F0E7F1746126891B00C464FF08F
:1036B000000A1D46C2F808A0C6F3C013D2F8009055
:1036C0008DF834302431062280460EA82E681FF073
:1036D00027F8237FA4F81CA0797C97F812A0C3F3E5
:1036E000401211F001018DF830200B9204F12B00F3
:1036F0004FF0060200F0EF8004F11E011FF010F8F9
:10370000BAF1FF0F04F1250304F11F0B00F0ED8067
:103710005A46504604F11E010D9316F0E5FAA27FB9
:103720000D9B0232A2770EA9184606221EF0F8FF62
:103730006B8AAA8A6386B9F83030E386A28618F0CD
:1037400049FE84F83800304612F032FF03462882E2
:103750002146E38040467C6811F0A2FB2B8AE3807F
:103760000E2323710B9B2068002B00F0B08095F88E
:1037700009E02B7A95F80BC0A97A95F8212041EA47
:103780000C2143EA0E234B4042F0400201216B849E
:1037900085F821202177214611F082FB11F08AFB68
:1037A00095F84800DFF880A1C0F3C00100F00700E1
:1037B00017F0A6FD00248346312300F25240336007
:1037C000C6E9014450A3D3E90023A0FB0A01FCF79A
:1037D00097FCB5F812C0FB6820F07F40F0602246ED
:1037E0000221012040F2E24808FB0CF8A3F587759E
:1037F0000DF0DEF8484612F07DFA021DD2B2444BBD
:103800000092012120460EF0FFFC234603220121F5
:10381000009420460EF0F8FC304612F0C9FE0696E1
:103820004FF43273BF683B4A08933B4B07920593B2
:10383000F368049388FB0A8900F1050C32A3D3E9ED
:103840000023404649465FFA8CF60394FCF758FC87
:10385000104619464FF47A720023FCF751FC2AA354
:10386000D3E90023844649464046CDF808C0FCF71A
:1038700047FCA5EB0B05844623A3D3E90023A5FB56
:103880000A01CDF804C0FCF73BFC313F20F07F403B
:103890003B4600903246204601210EF049FC30F0B4
:1038A00002030CD01D4A1E491E4840F2C9231CF0D9
:1038B000C7FE404080F311884FF0030002DF012271
:1038C000104602210DF074F811B0BDE8F08F9DF89C
:1038D000303023775FE71EF04EFFBAF1FF0F04F19F
:1038E000250304F11F0B7FF413AF184606220021B5
:1038F0001EF041FF9DF83430A3770EA958460622EA
:103900001EF00EFF14E700BF8D49FD1A07000000EE
:10391000B5910100B9910100E9910100B47602006E
:10392000D4740200CC6E020000CA9A3B0000000072
:103930002DE9F04F91B00446079090F93D00E468FE
:103940000B940028B8BF1434CDE9091205934FF049
:10395000FF024FF00003B8BF0B94DDE91A7BCDE9FD
:103960000D3390461E468DF8332006921C469A462B
:1039700004931D4649E09DF83300FF2869D0B8F153
:10398000FF0F11D00E9B53450ED0A14AA149A2486A
:1039900040F275131CF054FE404080F311884FF044
:1039A000030002DF9DF83300831E042B00F2A28087
:1039B000042840F2AC80069BFF2B40F0978005382E
:1039C00080B212F0FDFD079B834200F093800999BD
:1039D00090F93D203B78002940F0A780002A12DBB7
:1039E000C268DDF83490DDF82480283208920A9A03
:1039F00012684A45C0F0A880089ADDF838A09DF802
:103A0000338004924D469C4277D20FAB0293834B96
:103A100001930DAB022100930DF133020EAB002098
:103A20000F910EF037FC022874D00F9B002BA2D010
:103A3000774A7B4978484FF4B6731CF001FE40404A
:103A400080F311884FF0030002DF9DF83300FF2858
:103A500095D10A9B1A683B78954238BF1546A34218
:103A600042D9049BDFF8C081EB18A3FB08010726AD
:103A700006FB031164A3D3E90023FCF741FB694B68
:103A8000A3FB0020059AC0F38F218A424FEA9020C1
:103A900040F2A9800FF2701ADAE9009A06930CE05E
:103AA000FCF72EFB069BA3FB0030059BC0F38F2188
:103AB0008B424FEA902040F296800BEB440C0BF8BF
:103AC0001400090A8CF80110049997F800C0013419
:103AD000283501EB050EE4B2AEFB0801A4454A46C9
:103AE000534606FB0E11DBD80A9B1D603C7011B0DB
:103AF000BDE8F08F3B789C4287D39DF83330FF2B95
:103B0000F4D10A9B1B689D4238BF1D46ECE73B7809
:103B1000069078E70F9B022B87D1022100200EF040
:103B2000FFFB0F9B022BF8D07FE7002AC168DDF86E
:103B300034904DDA01F13C0208920A9A12684A4523
:103B40004FF01408BFF458AF954238BF15469C4259
:103B500037D2049B0B9A1A97134498441BE0FCF746
:103B6000CFFA304B059FA3FB0030C0F38F26BE4237
:103B70000BEB440204F101034FEA16214FEA9020B7
:103B800005F1280533D20BF8140051701A9A1278F7
:103B9000DCB2A24222D9294648460EF0DBFB049B48
:103BA000214A2B448446C445A3FB02014FF007027F
:103BB00002FB03114FF0000A13A3D3E90023CED276
:103BC0001A9F0A9B1D60059BB34215D93B7813E7EA
:103BD00001F1280208924FF0000808E70A9B1A9F9B
:103BE0001D603B7808E70A9B00251D607EE70A9B65
:103BF0001A9FC3F800A055469DF83330FF2B7FF481
:103C000075AF26E7AFF3008000CA9A3B00000000C2
:103C10000C7702003C6F0200CC6E02007598010028
:103C2000507702005917B7D18D49FD1A00000000E6
:103C30002DE9F04F8FB01C46FF2609930431002375
:103C4000DFF81081DFF810B1DFF810A1DFF8109174
:103C500023608DF82F60049605930446089115465D
:103C60000C9306930DAF0CAE4FF0020CCDE901871B
:103C700000962B460DF12F0221460020CDF834C0CE
:103C80000EF008FB022831D00D9B002B34D19DF89B
:103C90002F00FF2840D00538C3B2012BE4D880B2F2
:103CA00012F08EFC0028DFD090F93D30002BDBDBDA
:103CB0000499C3680C9AFF2903F104030CD00699F8
:103CC0000793104604920EF045FB059B089A99183D
:103CD0008842049A079B22D8CDE905329DF82F30FF
:103CE0000493C1E7214600200EF01AFB0D9B022B26
:103CF000F8D00D9B002BCAD052235A465146484655
:103D00001CF09EFC404080F311884FF0030002DF5E
:103D10009DF82F00FF28BED1049BFF2B10D0DDE9BA
:103D200005320B481344A3FB0001072202FB0311D9
:103D300005A3D3E90023FCF7E3F9099B8030186061
:103D40000FB0BDE8F08F00BF00CA9A3B0000000032
:103D50008D49FD1A759801000C770200507702001A
:103D6000CC6E02000000000070B51C4682B0154603
:103D7000064601AA02200195FFF75AFF23680BB3FC
:103D80000198431B1B021FD429460EF0E3FA1A4B7D
:103D90000246A0FB0301072303FB021114A3D3E98E
:103DA0000023FCF7ADF9226802442260002A09DBF7
:103DB00040F2E24101FB06F0904203D2121A904217
:103DC000FCD3226002B070BD014628460EF0C2FA54
:103DD000094B0246A0FB0301072303FB021104A3C6
:103DE000D3E90023FCF78CF92268121A2260DDE780
:103DF00000CA9A3B000000008D49FD1A0000000037
:103E00002DE9F041B0F8802188B0054640F2E24348
:103E1000454805AE03FB02F3002783FB000106249F
:103E20003FA3D3E9002377600597B7608DF80F4073
:103E3000FCF766F90DF10F020196B5F876310092A4
:103E400004460121284604AA0494FFF771FD9DF859
:103E50000FC00CF1FF34E4B20DF11603394603EB49
:103E600044042F4605F10C0E4FF6FF7097F8813190
:103E700097F8802142EA03220FFA82F8BCF1000F82
:103E800009D03346824203D01988914217D00121CC
:103E900002339C42F6D10237BE45E7D1F1B9BDF8F5
:103EA0001430D5F8F01040F2E24202FB03F2180A97
:103EB000C5F810210B70487008B0BDE8F081D5F846
:103EC000F01040F2E24303FB02F3120AC5F810318E
:103ED00081F800804A7008B0BDE8F08195F8E820CC
:103EE00095F8703185F8E92085F8713115F080F882
:103EF000D5F8F03013F8052C03252A4311240F20A0
:103F0000202103F8052C03F8045C03F8024C03F8A5
:103F1000010C197008B0BDE8F08100BFAFF300805C
:103F20008D49FD1A0700000000CA9A3B00000000FE
:103F30002DE9F04F83B0044619F0B8FA10F0FF0FE6
:103F40000AD117F0F3F99C48214619F06DF903B036
:103F5000BDE8F04F19F07CBA19F0C8FA5FFA80F8A2
:103F600019F04EFBC7B219F055FB064619F06EFD6D
:103F7000C5B219F059FD824619F00AFB814617F0C7
:103F8000D5F9002F40F0A980002D40F0B880FF2621
:103F9000B8F1000FD7D0A37D190700F1A680002F3C
:103FA00040F0E081012011F07FF80746002800F082
:103FB000F181A3685FFA89F9002B00F0D280A37D1C
:103FC0001A0740F1DB81387F10F00F0340F09D802D
:103FD0007B7F252B00F2A281042011F065F80028D8
:103FE000B1D019F03BFCA36A804643B9E28C40F2A1
:103FF000712303FB02F3B0FBF3F203FB1208236807
:104000006E48DB680722A3FB000102FB031168A3D3
:10401000D3E90023FCF774F8A0F24233434592D36E
:1040200019F090FAD4F808A019F06EFA3B7F0278E4
:10403000C3F38013DB0102F0500243F02503134366
:104040002222037042708146304616F021FCE37D47
:10405000DA07834609F1020040F10682BBF1000F46
:1040600000F0028299F8003043F0400389F80030F4
:10407000062259461EF054FB062207F11E0109F1E3
:1040800008001EF04DFB04220AF1080109F10E00A0
:104090001EF046FB03220AF10C0109F112001EF08A
:1040A0003FFB012389F81530BAF81230019319F05B
:1040B000D5FBD4F8108000F5DB63B8F1000F00F0F9
:1040C000F881019940F2E24202FB01F2B8F1000FDF
:1040D00001DB434574D99044F8E7A07DF1B2C0F309
:1040E000C00016F0F3FB064652E7002F7FF45AAFEC
:1040F000304616F0A7FC00287FF454AF23E75FFAA0
:104100008AF016F04DFC064642E7012B40F0E080B5
:104110007B7F0C2B7FF417AF07F12408C0094146C1
:10412000324616F03DFD00287FF456AFE37DDB07F5
:1041300000F1F281A37D387FC3F38012B2EBD01F70
:1041400000F01482C3F3C10398070AD597F91C3015
:10415000002B06DA97F8293003F0C003402B3FF418
:104160003BAF387F10F00F0340F0B2807B7F252BF0
:104170003FF6E9AE94F91620002AC0F21E81252BE5
:1041800098BF4FF0000800F2C980002B3FF4DBAE6F
:10419000A368002B7FF4D7AE002D14BF3146FF215A
:1041A0004246484618F034F8CDE600BFAFF3008031
:1041B00000CA9A3B000000006DBF01008D49FD1A46
:1041C000CD4999F81520A8EB0303A1FB0313C3F312
:1041D0008F230132A9F8163089F81520BAF8121089
:1041E000BAF81420A38AA9F81C30A9F81810A9F865
:1041F0001A200AF11C01052209F11E001EF090FA96
:104200009AF8222099F8233062F3040389F82330C6
:1042100018F0E0F899F8233060F3471389F8233059
:10422000484619F0E7F819F037F9002840F05581B1
:10423000B248214618F0F8FF237943F00102DB076A
:10424000227100F13C8110F04DFF09238246037179
:104250004FF6FF7324223F7FC38049461C301EF077
:104260005FFA9AF81C30CAF80840C7F3401767F3A2
:1042700045138AF81C3019F095FA0021CAF810008D
:10428000084619F0C7F8002D08BFFF268AF81A6003
:10429000E27DA8EB000012F00102CAF8140003D07E
:1042A000BBF1000218BF01229AF8193062F3000333
:1042B0008AF8193010F016FF5146CAF80C00DAF8E7
:1042C000000010F027FF03B0BDE8F04F10F032BF40
:1042D000062B6DD0022B00F0C580012B1ED17B7FF9
:1042E0000C2B7FF430AE07F1240AC0095146324648
:1042F00016F056FC804688BBA37D387FC3F380123E
:10430000B2EBD01F00F01A81C3F3C103980704D5A4
:1043100097F91C30002BC0F20681387F00F00F00A7
:1043200004287FF410AE7B7F252B3FF60CAEA37DD7
:10433000DA077FF508AE19F0E7F83B7F0278C3F3A0
:104340008013B3EBD21F7FF4FEAD0830062207F1D5
:104350001E011EF0D5F900287FF4F5AD7B7F4FF0EC
:10436000000812E73146284616F0A8FB00287FF423
:1043700019AEA37D1B077FF5E6AD13E6FF2E00F017
:104380008280237E9B1BB3FA83F35B09002B7FF4AF
:104390001AAEE6E65A4A5B495B4840F297231CF0A6
:1043A0004FF9404080F311884FF0030002DF00E630
:1043B0007B7F252B7FF6DEAEB0E7A268002A7FF474
:1043C000DEAE962019F03CF9002019F0A1F8002D7E
:1043D00014BF3146FF214846002217F019FF00287C
:1043E0007FF4B1AD19F090F83B7F0278C3F38013EE
:1043F000DB01054602F0700243F0030313430C2275
:1044000030462B706A7016F043FAE37DDE070146F2
:1044100040F19D80002800F09A802B78284643F0D8
:10442000400300F8023B06221EF07AF907F11E0154
:10443000062205F108001EF073F9284618F0DAFF8D
:1044400019F02AF8002840F09C8019F0FFF9A37DAC
:104450002E4843F001032146A37503B0BDE8F04F99
:1044600018F0E2BE7B7F8AE6A37D99F80020C3F3B3
:10447000801363F3861289F8002004F119010622E3
:104480001EF04EF9F8E5387FC3F34013C0F38012F5
:1044900093427FF467AE062207F11E0104F11F006C
:1044A0001EF02EF9B0FA80F35B09002B7FF48BAD80
:1044B00057E689F8168089F8178098468EE6104AE4
:1044C0001349114840F236331CF0BAF8404080F3EB
:1044D00011884FF0030002DFB5E6094A0D490A488A
:1044E0004FF444731CF0ACF8404080F311884FF057
:1044F000030002DF9CE600BF5917B7D1B1C101002C
:104500004C7B0200987B0200CC6E020089BF010048
:1045100088710200147B0200304616F0B9F90028B9
:104520007FF41FAE06E697F8293003F0C003402B56
:104530007FF4F3AE7B7F4FF0010826E6514606225A
:1045400004F119001EF0DCF848B3A37DDCE6A37D7E
:104550002A78C3F38013284663F3861200F8022BEF
:1045600004F1190106221EF0DBF85FE7414606223E
:1045700004F119001EF0C4F800283FF42DADA37D0E
:10458000E0E5084A0849094840F291331CF058F820
:10459000404080F311884FF0030002DF55E77B7F36
:1045A000F3E500BF4C7B0200147B0200CC6E0200DE
:1045B000104B114A1149D21AD208920110B542F09B
:1045C000040204460E481CF008FB0023C4F83431F2
:1045D000D4F83C0110B9C4F8440110BDD4F840210E
:1045E0000368C4F83C31904208BFC4F8403121F060
:1045F0003AFAEDE7446502001C6602005F820200A1
:10460000AC7F020008B50649064B0748C91AC9081D
:10461000890141F001011CF0D3FA002008BD00BF60
:104620001C66020044650200C47F020038B5154CC8
:10463000D4F83C31C51C25F0030523B1D4F844312E
:104640002B44742B18D978201AF0AAFE78B10023D5
:104650000360D4F840215AB9C4E94F00C4F844318A
:10466000D4F844311A1D1D441044C4F8445138BDD7
:104670001060C4F84001F1E7D4F84001002838BFC9
:104680000020EDE7B01500202DE9F743274B284D1A
:10469000284CED1AED08AD0145F00403ADF80030EB
:1046A000038AD4F8342107460E46234823491CF0D8
:1046B000C1FAD4F83431222B0AD9214845F001013E
:1046C0001CF07EFA4FF00008404603B0BDE8F083CE
:1046D0003B681B78022B0ED81A4A12F8039006EB9F
:1046E0000900FFF7A3FF804648B9174845F00101CC
:1046F0001CF066FAE8E7FFF785FF8146EFE7D4F89C
:10470000343139685A1C0333DB001D1DC4F83421D1
:1047100025441C443B8A2381BB7CA37230446060E7
:104720004A461DF0FDFFA846CEE700BF44650200E3
:104730001C660200B0150020DB7F020077820200B9
:10474000008002005C8202001C800200114B124AB1
:1047500012481349D21AD208920110B542F004024D
:104760001CF03BFABFF35B8F0E4800F59C7353E8D7
:10477000002F42F0020243E800210029F7D1BFF3E5
:104780005B8FD0F848311B681BB1BDE81040416811
:10479000184710BD446502001C6602003980020003
:1047A00082820200B015002070B50F4C05462046ED
:1047B000FFF7FEFEBFF35B8F04F59C7353E8002FF9
:1047C00022F0010243E800210029F7D1BFF35B8FFB
:1047D000D4F848319B682BB1626820682946BDE84F
:1047E0007040184770BD00BFB0150020134B144A2D
:1047F0001449D21AD208920110B542F004020446BC
:1048000011481CF0EAF92046FFF7D2FEBFF35B8F98
:1048100004F59C7353E8002F22F0010243E80021C5
:104820000029F7D1BFF35B8FD4F848315B6823B11F
:10483000D4E90001BDE81040184710BD44650200EE
:104840001C660200958202005180020070B5044689
:1048500060B90F4B0F491048C91AC908890141F0C6
:1048600001011CF0ADF92646304670BD0378022BDD
:104870000AD80A4AD55C2846FFF7D8FE2A462146C0
:1048800006461DF04DFFEFE7FFF7BCFE0546F2E7D9
:10489000446502001C6602007A8002005C8202000D
:1048A0002DE9F043714B724EF61AF60885B080463A
:1048B00014460D46B60199B96E496F4846F0040298
:1048C0001CF08BF96D4F3B68434511D06C4846F0A6
:1048D00001011CF075F96FF00D00FFF765FF0EE0A8
:1048E0000A8A6848634946F004031CF08AF9E9E73C
:1048F000237C032B00F09D8003D8022B24D10024BD
:104900008CE0052BFBD1002D75D1D7F83431012B6C
:104910006ED95D495D4846F004021CF05EF93B8C9F
:10492000394601333B8251F8080B03233B7609F0EB
:1049300085FB04460028E2D0014646F001025448B7
:104940001CF04BF92046C8E71DB93846FFF74EFF6B
:10495000D5E728460821EC68FFF796FE054638B9EA
:104960004C4846F001011CF02BF96FF00B00B4E746
:104970008288A3884849494846F004090132ADF8C5
:1049800000901CF057F928461BF05CFD804621463C
:1049900008221DF0C5FED8F80000FFF757FF0446B7
:1049A000C8F8000038B93E4846F001011CF008F98B
:1049B0006FF00B0047E005233B76AB88364939485A
:1049C00001333B824A46B8F80430FB820024BC60C5
:1049D0001CF003F9394651F8080B09F02FFB01468A
:1049E00000288CD0304846F001021CF0F6F8DFE7D2
:1049F000FFF7ACFE83E7002442F6030328688DF836
:104A00000C4003A9ADF80E301DF059FF50B9082134
:104A10002846FFF739FE044630B10124204605B090
:104A2000BDE8F0832146F3E7298A204846F00102D9
:104A3000DBE7002DDCD0298A38461BF0E5FC044674
:104A400020B96FF00200FFF7AFFEE7E7EC681BF05C
:104A500019FD0546214608221DF062FE2868FFF771
:104A6000F5FE044628600028D7D1A1E7446502007E
:104A70001C660200E88202008E800200B015002051
:104A8000B5800200A1800200CC820200A681020053
:104A9000CC810200D7800200B282020000810200B5
:104AA0002E8102005C8102007F810200F7810200FA
:104AB00070B50646084619B1097811F0FD0F4AD1C4
:104AC000002A48D0BFF35B8F264C04F59C7555E84F
:104AD000001F41F0010C45E800CEBEF1000FF6D1F9
:104AE000BFF35B8F11F0010138D1C4E90063C4E961
:104AF0004F11C4F84821C4F83411C4F8441108B166
:104B0000FFF7A4FE184BE360012323824FF6FF73E7
:104B1000A060E382154900233046237609F08EFA1F
:104B20000446B0B1124B134AD21AD2089201014680
:104B300042F0010210481CF050F8BFF35B8F55E8BB
:104B4000003F23F0010345E80032002AF7D1BFF30C
:104B50005B8F204670BD6FF01504FAE76FF04404D8
:104B6000F7E700BFB0150020A1480000B8150020ED
:104B7000446502001C6602003582020001481BF0F9
:104B80005FBD00BFFB82020001481BF059BD00BFA2
:104B90002883020007B5D0E9011300930368034896
:104BA0008A0A1BF04DFD03B05DF804FB3B83020055
:104BB00007B5D0E901130093036805488A0A1BF082
:104BC0003FFD044B012200201A7003B05DF804FB86
:104BD0007B830200EF4D002038B504460D460E4899
:104BE0001BF02EFD2946204600F034FA20461BF02B
:104BF000D2FC0A490A4B0B600A4B186809F0F8F915
:104C0000014620B1BDE8384007481BF019BDBDE89A
:104C1000384006481BF014BDB9830200001700207D
:104C2000954E0000FC160020D6830200F48302009B
:104C300030B50C4D0FCD89B003AC0FC42B68236089
:104C4000002309490093022203A81EF010F8014630
:104C500020B106481BF0F4FC09B030BD04481BF03D
:104C6000EFFCF9E7C0660200B86702000A840200A0
:104C70002B84020070B588B00D461C22002104462A
:104C800001A81DF078FD29460E4D0F481BF0D8FCF9
:104C90000E4B286800261E7010B11EF00DF92E6014
:104CA00001A9204605F01AFE014620B108481BF074
:104CB000C7FC08B070BD9DF80530002BF9D0FFF798
:104CC000B7FFF6E7FC1600203E840200EF4D0020FF
:104CD0005C840200F0B58DB00C4606461C22002113
:104CE00005A81DF048FD34B1022C0ED02E482146F7
:104CF0001BF0A6FC09E02D4C236843B12C481BF0A7
:104D00009FFC1621304605F08DFE0DB0F0BD294DFB
:104D100030461EF0CAF82B6820606BB1B34206D053
:104D200025481BF08DFC2868162105F07BFE2868BD
:104D30001EF0C2F800232B6005A9206805F0CEFD07
:104D4000014608B11D48D3E71D4B1E4A9DF81510BA
:104D50001D4800290CBF114619461BF071FCBDF817
:104D600028101A481BF06CFC9DF81530012BCCD193
:104D7000174B25686A4603F11007164618685968EC
:104D8000144603C40833BB422246F7D11B78237074
:104D90003146104B104A2846FFF78AFE014600288C
:104DA000B3D00E48A4E700BF8D840200FC1600209B
:104DB000AD84020024170020DE8402000385020077
:104DC0008784020080840200258502003685020067
:104DD000D46602000417002054010020528502000E
:104DE0004368084A1BB9084813601BF029BC1068C7
:104DF000B0EB932F4FEA932102D004481160F4E7FF
:104E0000704700BF20170020F18802006C85020067
:104E100030B593B01EF053F80378044607AD032B6A
:104E200024D8DFE803F0021D1F21134928461DF096
:104E300037FCA379059562780492A2780392E27810
:104E4000029222790192627900921E210B4A0AA8ED
:104E50001BF003FC0A480AA91BF0F2FB13B030BD9B
:104E60000849E3E70849E1E70849DFE7084A0A217A
:104E700028461BF0F2FBDCE76E85020090850200FD
:104E8000B3850200758502007C85020086850200DC
:104E900046A5020030B589B01C2204460D4601A883
:104EA00000211DF068FC124B12491348002D18BF59
:104EB00019461BF0C5FB01A9204605F00FFD014670
:104EC00020B10E481BF0BCFB09B030BD1BF089FBC4
:104ED0004EF65F2504461BF084FB031BAB42FAD958
:104EE0009DF80530012B04BF054A1370ECE700BFA5
:104EF00019990200CA850200D585020003850200C7
:104F0000EF4D002070B51C4ECC681D4601F02EFA06
:104F10003368C01A194BA0FB0301C20B012D42EAF2
:104F200041424FEAD13319D10023C4E90033A360D1
:104F300001F01CFA3060124B124A13491348D21A7E
:104F4000D208920142F004021BF047FE104B1B688E
:104F50005B680BB120469847284670BD216866689B
:104F60000C482E4401312160A6FB000166603144EB
:104F7000FBF7C6F8A060DEE72C17002000CA9A3BBA
:104F8000446502002466020002880200FE860200D8
:104F9000281700200050D6DC0C2B2DE9FF4128BF3C
:104FA0000C231E46114B1B689B6807460D46904616
:104FB0000BB1C86898470E4A0E4C0F490F48A41A07
:104FC000E408A40144F004021BF007FEEB6801931F
:104FD000BDF82830009302963346424629463846AB
:104FE0001FF06BF904B0BDE8F08100BF2817002066
:104FF0004465020024660200118802001187020045
:105000001FB51C460C22002101A81DF0B4FB14B9E9
:10501000002004B010BDBDF818200C2A28BF0C22B7
:10502000214601A81DF07CFB034B1B681B68002B6D
:10503000EED001A89847ECE72817002020B119B15D
:10504000034B0020196070476FF01500704700BFD8
:10505000281700202DE9F04387B00E4605461BF0C7
:1050600027FA1BF0EFF92E4BD0F800C001AA03F18C
:10507000100E174618685968144603C40833734560
:105080002246F7D11B782370394660461DF017FC85
:10509000804628B16FF02208404607B0BDE8F08393
:1050A000204B214C21492248E41AE408A40144F091
:1050B00004021BF092FD41F22453694628468DF804
:1050C0000080ADF802301BF017FA814620B919486C
:1050D00044F001011BF074FD00238DF804303A46C2
:1050E00041F2245349462846ADF806301BF041FAF8
:1050F000074638B9104844F001011BF061FD6FF01C
:105100001508C9E709490D4844F004021BF065FD84
:10511000BB88338028461BF0C9F9B061BCE700BFEB
:105120006267020044650200246602001F880200D4
:10513000208702004D87020070870200A3870200CB
:10514000038810B583810023C38101460123836056
:10515000094B41F8043F806909F016FB044648B149
:105160000649074B0748C91AC908890141F00101DE
:105170001BF026FD204610BD0150000024660200F1
:1051800044650200D38702002DE9F04F87B00F4637
:105190001946109B9DF844B09DF848A01F4C064648
:1051A0001425104698464FEAE37950EA010319D1D5
:1051B000142D139C14BF013530232C4408BF8DF8E7
:1051C0001430152C1BD0153C002C1ADC1DF80500E2
:1051D00039460135B047152DF8D1002C19DC07B040
:1051E000BDE8F08F42464B46FAF78AFFA25C0DF805
:1051F000052084460B4660461946013DD5E700244C
:10520000E4E7BBF1000FE1D039465046B047013C1E
:10521000DAE739465046B047013CDEE741880200F4
:105220000B6801330B60014B1B68184768010020B5
:10523000014B1860704700BF680100202DE9F04F56
:10524000002687B005468B461C4602F1FF394FF019
:10525000FF383746002307E06BB9252800F0FC80B3
:1052600059460493A847049B19F8010F0028F3D16D
:1052700007B0BDE8F08F7A280AD8622810D8302805
:1052800052D045D8252800F0E5802D2800F0EA808E
:1052900059462520A84799F800005946A847D9E75C
:1052A000A0F16302172AF3D801A151F822F000BF40
:1052B0004D540000715300009152000091520000C3
:1052C00091520000535300007153000091520000AE
:1052D000915200005353000091520000915200007F
:1052E00091520000D55300009152000091520000ED
:1052F00017540000915200007153000091520000B9
:1053000091520000195300009152000053530000C5
:10531000392815D95828BBD199F80030702B63D1A2
:1053200054F8042B00236AE0B8F1000F0BDA002FC9
:1053300000F09A80A0F13008002F08BF022793E701
:10534000B8F1000FF6DB0A2202FB0808A8F13008CA
:10535000F2E7682803D1682E06D1482684E76C2836
:1053600002D16C2E00F08280002E91D106467BE7A0
:105370007A2E03D154F8042BD31708E06C2EF9D001
:105380004C2EF7D1073424F00704F4E802237528E3
:105390000FD0002A73F100010BDA59462D20CDE918
:1053A0000423A847DDE90423524263EB430308F1D9
:1053B000FF38F91E18BF0121012F0CBF302020201B
:1053C000CDE9020801910A21009128465946FFF7CC
:1053D000DBFE3FE759463020A84759467820A847CA
:1053E0004FF00808012797E76C2E99D04C2E97D1E3
:1053F000E31D23F007031C465B6854F8082BF91ED5
:1054000018BF0121012F0CBF302020200191CDE9D0
:1054100002081021D8E7A2465AF8043B1C46214650
:1054200014F8010B40B9032F22D1CC1AA8EB0404C5
:10543000002C06DC54460DE759460493A847049B0C
:10544000EDE759462020A847013CF1E754F8040B4A
:10545000594623E7594621E71E461F464FF0FF38BD
:10546000012301E70327FFE60127FDE64C26FBE6C3
:1054700054460346F8E600BF07B50B460021024636
:105480000191034801A9FFF7D9FE03B05DF804FBC1
:105490002152000030B585B0CDE901010446002558
:1054A0000548039501A9FFF7C9FEDDE902309842DE
:1054B000B8BF255405B030BD1B06020030B51049F9
:1054C000104889B0002220F0CDFD0F4D0F49002279
:1054D0000023CDE9062300240E23CDE90334CDE9D2
:1054E00001440B4B00944FF4407228461AF044FCE0
:1054F0000849284620F0BFFC204609B030BD00BF57
:1055000019550000E8090020200A0020E05700207B
:10551000315900005288020001481AF09FBB00BFB9
:105520002C08002008B500F065FA09481BF005FBBF
:10553000042328220749084820F062FA074B084A4A
:105540001A604FF40040BDE8084000F097BC00BF6F
:1055500048170020307A0020501700206C010020EE
:10556000790B0200F8B50F4BBFF35B8F002553E8B2
:10557000007F43E80052002AF9D1BFF35B8F0A4C49
:105580000A4E361B3611B54200DBF8BD63685B7905
:105590002BB12368DB6813B13946204698470135A3
:1055A0001034F0E7401700209C660200BC66020041
:1055B000064BBFF35B8F53E8002F013243E8002115
:1055C0000029F8D1BFF35B8F704700BF4017002060
:1055D000044A054B9B1AB1EBD30F34BF52F831008C
:1055E00000207047446502009C660200094B426837
:1055F000C31A1B11013310B513714368064C1960AF
:1056000001225A71227812B904481AF027FB0123AB
:10561000237010BD9C660200F04D00202C08002075
:1056200070B5114BBFF35B8F53E8005F6A1C43E812
:1056300000210029F8D1BFF35B8F2DB90B4C0C4E24
:10564000361B3611B54200DB70BD237B43B12368A6
:105650005B6903B19847042200212046FFF7C6FF8B
:1056600001351034EEE700BF441700209C660200AD
:10567000BC660200164B984237B5044602D3154B60
:10568000984220D314480022002301A919F02CFECF
:105690000546D8B90122019BBFF35B8F53E8001F79
:1056A00043E800200028F9D1BFF35B8F0198214621
:1056B0001F2204301CF0FEFF019C7E2384F823305F
:1056C00084F824500434204603B030BD034CFAE77C
:1056D00008630200D0A70200501700205A88020079
:1056E00048B1054B984205D3A03398422CBF002007
:1056F0000120704700207047307A00202DE9F04FDC
:105700004C4B1B7885B0044603B960B34FF02003BF
:10571000EFF3118683F31188BFF36F8F46481BF0B8
:105720001CFA054686F31188BFF36F8F78B1BFF37B
:105730005B8F424B53E8002F013A43E800210029D8
:10574000F8D1BFF35B8F94B128461BF01DFB24B941
:105750003B4B1B680BB1FFF705FF37481BF0FBF90C
:10576000041E18BF0124204605B0BDE8F08F354B5C
:105770001B78CBB92B7ADB0716D41BF018FB8046BD
:1057800028461BF0DFFA014640461BF0F9F92E4F80
:105790002E4BDFF8D4B0DB1BDB0803932C4BDB1B59
:1057A00006464FEAD30A36B92A4E2B4FBF1B3F118C
:1057B0004FF000083AE0B6FA86F1C1F11F094946F8
:1057C00028461BF0C2FA254B9842014602D3244BCF
:1057D00098421AD30846FFF783FF0246A8B9214B27
:1057E000994212D06B8903989909B0EB931F4FEA45
:1057F0008A1343F0010388BF57F83120ADF8003019
:105800004946434658461BF015FA012101FA09F1B1
:1058100026EA0106C7E773685B7923B13368294636
:105820001B683046984708F101081036B845F2DB8E
:105830008AE700BFF04D0020481700203C170020E9
:1058400040170020F14D0020446502009C660200D4
:10585000646602009C660200BC66020008630200E7
:10586000D0A702005A88020074880200294B73B541
:105870001B68418104469847274DE060BFF35B8F6A
:1058800055E8003F013345E80032002AF8D1BFF364
:105890005B8F4FF02003EFF3118683F31188BFF382
:1058A0006F8F1E4821461BF04CF986F31188BFF319
:1058B0006F8F1B4B1B7883B14FF02003EFF31184E4
:1058C00083F31188BFF36F8F0020FFF717FF84F376
:1058D0001188BFF36F8F02B070BD124A2B68126837
:1058E000002AF8D0012B0AD100220023CDE90023A1
:1058F0000D484FF4004200231AF0A2FCEBE70A2BFC
:10590000E9D1094820F0BAFB084802B0BDE8704070
:105910001AF0A4B96C0100203C17002048170020A1
:10592000F14D00206C170020E80900202C08002011
:1059300010B5FFF775FE1AF08BF90C4B186030B1FB
:105940000B4B1B68092B02DD0A481AF087F9094C3A
:105950000020FFF7D3FE0028FAD14FF0FF324FF0BE
:10596000FF3320461AF0A0F9F2E700BF6C170020C1
:105970003C1700202C080020F8B50E4F3D7875B973
:105980000D4C0E4EFFF74CFE361B3611B54207DBB1
:105990000020FFF7B3FE0028FAD101233B70F8BDC9
:1059A00063685B791BB1236820461B699847013502
:1059B0001034EBE7F14D00209C660200BC6602004B
:1059C00007B504380190BFF35B8F50E8003F5A1EC3
:1059D00040E800210029F8D1BFF35B8F012B03D1F0
:1059E000034801A919F0B2FC03B05DF804FB00BF45
:1059F000501700202023024902481A4620F000B820
:105A0000D07A00207017002037B50023094D01938C
:105A10000120FFF773FE0446FFF7CAFD00220023B2
:105A200001A9284619F060FC08B1002CF0D10198BA
:105A300003B030BD7017002007B50023019307485D
:105A40000022002301A919F04FFC10B1FFF7DCFF81
:105A50000190019803B05DF804FB00BF70170020AF
:105A6000F0B5037A457A85B02D090190D8071CD48A
:105A7000DDB100242646019831461BF066F9074641
:105A8000FFF72EFE70B134B9019B294618691BF04F
:105A900077F8044648B124FA06F3D90702D5384608
:105AA000FFF78EFF0136AE42E5D3019B1A7A9207CB
:105AB00004D55B69084C0393039B2BB9064801A9E5
:105AC00019F044FC05B0F0BD1D6803A9204619F08B
:105AD0003DFC0395F0E700BF701700200EB403B53E
